:100000000C9437000C945F000C945F000C945F001C
:100010000C945F000C945F000C945F000C945F00E4
:100020000C945F000C945F000C945F000C945F00D4
:100030000C945F000C945F000C945F000C945F00C4
:100040000C948F070C945F000C9484050C945F0053
:100050000C945F000C945F000C945F000C945F00A4
:100060000C94B0020C945F00A901F3043D06112426
:100070001FBECFEFD4E0DEBFCDBF11E0A0E0B1E006
:10008000EEE4F1E102C005900D92A432B107D9F778
:1000900011E0A4E2B1E001C01D92AA3EB107E1F770
:1000A00010E0CEE6D0E004C02297FE010E94A10835
:1000B000C836D107C9F70E947D050C94A5080C9499
:1000C00000000F931F93CF93DF93689F8001699F78
:1000D000100D789F100D1124C8010E947D00EC01C5
:1000E000009729F060E070E0A8010E947F01CE0136
:1000F000DF91CF911F910F910895CF93DF93BC01B2
:100100008230910510F462E070E0A091E801B091B6
:10011000E901ED01E0E0F0E040E050E021C088813D
:1001200099818617970769F48A819B81309719F026
:100130009383828304C09093E9018093E801FE01D8
:1001400034C06817790738F44115510519F0841740
:10015000950708F4AC01FE018A819B819C01E901AD
:100160002097E9F641155105A9F1CA01861B970BA5
:10017000049708F4BA01E0E0F0E02AC08D919C9168
:10018000119784179507F9F46417750781F412968F
:100190008D919C911397309719F09383828304C0BB
:1001A0009093E9018093E801FD0132964CC0CA01A9
:1001B000861B970BFD01E80FF91F6193719302975E
:1001C0008D939C9340C0FD01828193819C01D90154
:1001D0001097A1F68091E6019091E701892B41F4F7
:1001E00080911601909117019093E7018093E601A9
:1001F00040911801509119014115510541F44DB735
:100200005EB78091140190911501481B590B209104
:10021000E6013091E701CA01821B930B861797070D
:1002200080F0AB014E5F5F4F8417950750F0420F8F
:10023000531F5093E7014093E601F90161937193D5
:1002400002C0E0E0F0E0CF01DF91CF910895CF93BD
:10025000DF93009709F450C0EC0122971B821A82A9
:10026000A091E801B091E901109709F140E050E058
:10027000AC17BD0708F1BB83AA83FE012191319120
:10028000E20FF31FAE17BF0779F48D919C91119780
:10029000280F391F2E5F3F4F3983288312968D9187
:1002A0009C9113979B838A834115510571F4D093D8
:1002B000E901C093E80120C012968D919C9113979B
:1002C000AD01009711F0DC01D3CFFA01D383C283D3
:1002D00021913191E20FF31FCE17DF0769F4888176
:1002E0009981280F391F2E5F3F4FFA0131832083F8
:1002F0008A819B8193838283DF91CF910895DC0172
:1003000001C06D9341505040E0F7089581E0809323
:100310002D016093280110922B0110922C01089559
:100320008091270190912601891B089590912601C3
:1003300080912701981710F080E00895E091240142
:10034000F0912501E90FF11D80819F5F90932601B7
:1003500008950895DF93CF930F92CDB7DEB76983E9
:1003600080912D018823A9F080912C018032B0F476
:1003700080912B01E0912901F0912A01E80FF11DF4
:10038000608380912B018F5F80932B0180932C01E0
:1003900005C0CE01019661E00E9493020F90CF91BB
:1003A000DF9108950E94AA0108956091290170913A
:1003B0002A018091280140912C0121E00E944E02E7
:1003C00010922B0110922C0110922D010895862F6E
:1003D0006091240170912501413208F040E20E94B1
:1003E0001802109226018093270108950E94E701C8
:1003F000089580E290E061E070E00E9461008093E7
:10040000240190932501109226011092270180E289
:1004100090E061E070E00E94610080932901909378
:100420002A0110922B0110922C010E94320408958F
:10043000982F413210F040E02FC080912F01882387
:10044000E1F781E080932F018FEF809340011092BC
:10045000370140933801990F91609093300185EEF8
:100460008093BC0080912F018130E1F380913701AE
:10047000841710F440913701A0913501B0913601F5
:1004800020E030E007C0FB01E20FF31F8D91808375
:100490002F5F3F4F2417B8F3842F08951F93582FD1
:1004A000122F413210F081E03CC080912F0188234F
:1004B000E1F782E080932F018FEF8093400110924B
:1004C000370140933801A0913501B0913601FB010D
:1004D00002C081918D938E2F861B8417D0F3852FB8
:1004E00090E0880F991F8093300185EE8093BC00C7
:1004F000112321F080912F018230E1F3809140019E
:100500008F3F11F480E00DC080914001803211F4E2
:1005100082E007C080914001803311F084E001C087
:1005200083E01F910895482F613210F081E0089513
:1005300080912F01843011F082E0089560933C0196
:10054000A0913901B0913A01842F9C01F90102C0B8
:1005500081918D938E2F841B8617D0F380E00895B0
:100560001F920F920FB60F9211242F933F934F9328
:100570005F936F937F938F939F93AF93BF93EF930B
:10058000FF938091B90090E0887F9070803691054C
:1005900009F4E2C081369105CCF58832910509F461
:1005A0007BC089329105B4F48031910509F46FC0A4
:1005B000813191053CF4009709F438C1089709F09E
:1005C00040C165C08831910509F466C0809709F083
:1005D00038C17FC08034910509F4A3C081349105EE
:1005E00044F48033910509F47FC0C89709F029C10C
:1005F00086C08035910509F486C08835910509F4D7
:1006000095C08834910509F01CC19EC088399105B8
:1006100009F404C189399105ECF48837910509F48E
:100620009BC0893791054CF48836910509F494C034
:100630008037910509F005C18FC08838910509F40C
:10064000EDC08039910509F48DC08038910509F01D
:10065000F8C088C0803B910509F4B2C0813B910588
:100660004CF4803A910509F491C0883A910509F05B
:10067000E8C0A6C0803C910509F4D4C0883C91052F
:1006800009F4D0C0883B910509F0DBC0B1C080916E
:1006900030018093BB00C0C0909137018091380138
:1006A000981778F490913701E0913501F091360177
:1006B000E90FF11D80818093BB009F5F909337010C
:1006C000ABC085ED8093BC008091BC0084FDFCCF65
:1006D000B6C080E28093400185ED8093BC0080919C
:1006E000BC0084FDFCCFABC080E38093400185ED6E
:1006F0008093BC008091BC0084FDFCCFA0C088E347
:10070000809340018FC0809137019091BB00E091B0
:100710003501F0913601E80FF11D90838F5F8093D2
:100720003701909137018091380174C08091370171
:100730009091BB00E0913501F0913601E80FF11D79
:1007400090838F5F8093370185ED8093BC0080910B
:10075000BC0084FDFCCF73C083E080932F01109216
:100760003F015AC080913F01803208F057C080910C
:100770003F019091BB00E0913D01F0913E01E80FF7
:10078000F11D90838F5F80933F0146C080913F01B0
:10079000803248F480913F01E0913D01F0913E01AB
:1007A000E80FF11D108260913F01E0913301F0915B
:1007B000340180913D0190913E0170E0099532C075
:1007C00084E080932F0110923B0110923C01E09154
:1007D0003101F0913201099580913C01882341F467
:1007E00081E080933C01E0913901F0913A0110825F
:1007F00090913B01E0913901F0913A01E90FF11D2F
:1008000080818093BB009F5F90933B0190913B015F
:1008100080913C01981710F485EC01C085E8809325
:10082000BC000FC085EC8093BC0009C01092400151
:1008300085ED8093BC008091BC0084FDFCCF1092BC
:100840002F01FF91EF91BF91AF919F918F917F9178
:100850006F915F914F913F912F910F900FBE0F902D
:100860001F90189510922F01449A459AE9EBF0E0F9
:1008700080818E7F808380818D7F808388E48093D8
:10088000B80085E48093BC0080E290E061E070E015
:100890000E946100809335019093360180E290E0E0
:1008A00061E070E00E9461008093390190933A0109
:1008B00080E290E061E070E00E94610080933D0181
:1008C00090933E010895FC01718360831582148228
:1008D000138212820895CF92DF92EF92FF920F93CC
:1008E0001F936C017B010EE211E0FC0160817181BC
:1008F000C8010E948601C801B7010E94D201C80147
:100900000E94D501F601F382E2821F910F91FF90C0
:10091000EF90DF90CF900895FC0182819381442372
:1009200019F0682B792B04C06095709568237923A2
:10093000CF010E946B040895FC018281938186237C
:100940009723892B19F0CF0140E002C0CF0141E08D
:100950000E948C0408950F931F93CF93DF938C0113
:10096000FC01608171818EE291E00E948601F801B4
:10097000608171818EE291E041E050E00E94F601D9
:100980008EE291E00E949001882319F4C0E0D0E04B
:1009900006C08EE291E00E949601C82FD0E08EE260
:1009A00091E00E94D501F801D583C483CE01DF9187
:1009B000CF911F910F910895EF92FF920F931F9384
:1009C0008C017B010E94AB0420E0F80184819581B9
:1009D0008E219F21892B09F021E0822F1F910F91F9
:1009E000FF90EF90089581E491E060E270E00E9452
:1009F00063040895DF92EF92FF920F931F938BECA5
:100A0000E82E81E0F82EC70160E071E00E94AB069D
:100A100001E411E0C80160E270E041E00E948C0452
:100A2000C80160E470E040E00E948C0468EC70E073
:100A300080E090E00E94D70768EC70E080E090E0F2
:100A40000E94D707C8010E94AB04AC01662757FD7E
:100A50006095762FC70122E030E00E947A07C70137
:100A600069E071E00E94AB06C80160E270E00E949C
:100A70009C04C80160E470E00E949C0468EC70E093
:100A800080E090E00E94D707C80164E070E00E9417
:100A9000DC04D82EC80162E070E00E94DC04182F4C
:100AA000C7016D2D70E00E947207C7016EE071E012
:100AB0000E94AB06C701612F70E00E947207C70158
:100AC00060E171E00E94AB0664EF71E080E090E0CD
:100AD0000E94D7071F910F91FF90EF90DF9008952C
:100AE0008EE291E00E94F9018BEC91E040E855E242
:100AF00060E070E00E94C10508950E9401080E9414
:100B000070050E94FA04FDCF1F920F920FB60F924C
:100B100011242F933F934F935F936F937F938F9302
:100B20009F93AF93BF93EF93FF934091C600E091E3
:100B3000C701F091C801CF01019660E870E00E9402
:100B40003B089C018091C9019091CA01281739077F
:100B500039F0E95BFE4F40833093C8012093C70111
:100B6000FF91EF91BF91AF919F918F917F916F9185
:100B70005F914F913F912F910F900FBE0F901F905B
:100B80001895AF92BF92CF92DF92EF92FF920F93A0
:100B90001F93CF93DF936C017A018B01DC011496D4
:100BA000AD90BC901597CB01BA0122E030E040E057
:100BB00050E00E947008205C3D4B404F5F4FCA01DF
:100BC000B901A80197010E947008C901DA010197D3
:100BD000A109B109292F3A2F4B2F552747FD5A95C7
:100BE0000196A11DB11DE5012883E601EE81FF817B
:100BF00081508083EA85FB85208141E050E0CA0175
:100C00000E8402C0880F991F0A94E2F7282B2083D4
:100C1000EA85FB852081CA010F8402C0880F991FD5
:100C20000A94E2F7282B2083EA85FB8580810888D7
:100C300002C0440F551F0A94E2F7842B8083DF9192
:100C4000CF911F910F91FF90EF90DF90CF90BF90C9
:100C5000AF900895FC01A085B18521898C9190E029
:100C6000022E02C0959587950A94E2F780FFF6CF91
:100C70000484F585E02D608308958EE191E09093E2
:100C8000CC018093CB0187E491E09093CE018093D7
:100C9000CD0185EC90E09093D0018093CF0184EC5E
:100CA00090E09093D2018093D10180EC90E09093FA
:100CB000D4018093D30181EC90E09093D60180938E
:100CC000D50186EC90E09093D8018093D70184E021
:100CD0008093D90183E08093DA0187E08093DB0180
:100CE00085E08093DC0108950F931F93CF93DF93EA
:100CF0008C01EB0109C02196D801ED91FC91019086
:100D0000F081E02DC801099568816623A1F7DF9184
:100D1000CF911F910F910895EF92FF920F931F9320
:100D2000CF93DF938C017B01EA010CC0D7016D9159
:100D30007D01D801ED91FC910190F081E02DC80179
:100D400009952197209791F7DF91CF911F910F91EE
:100D5000FF90EF900895DC01ED91FC910280F3810A
:100D6000E02D099508952F923F924F925F926F92D6
:100D70007F928F929F92AF92BF92CF92DF92EF922B
:100D8000FF920F931F93DF93CF93CDB7DEB7A0975A
:100D90000FB6F894DEBF0FBECDBF1C016A017B0108
:100DA000411551056105710549F4DC01ED91FC9196
:100DB0000190F081E02D60E3099554C088249924C6
:100DC0005401422E55246624772401E010E00C0FD4
:100DD0001D1F080D191DC701B601A30192010E9434
:100DE0004E08F80160830894811C911CA11CB11C61
:100DF000C701B601A30192010E944E08C901DA01A0
:100E00006C017D01C114D104E104F104F1F681E02B
:100E1000E82EF12CEC0EFD1EE80CF91C3E010894A6
:100E2000611C711CD501C4010197A109B1096C01B4
:100E3000C818D90814C0F601EE0DFF1D60816A3094
:100E400010F4605D01C0695CD101ED91FC910190ED
:100E5000F081E02DC10109950894E108F1086E14B4
:100E60007F0449F7A0960FB6F894DEBF0FBECDBF42
:100E7000CF91DF911F910F91FF90EF90DF90CF9076
:100E8000BF90AF909F908F907F906F905F904F90AA
:100E90003F902F900895EF92FF920F931F93CF935F
:100EA000DF93EC017A018B0177FF0FC0E881F981B4
:100EB0000190F081E02D6DE2099510950095F09478
:100EC000E094E11CF11C011D111DCE01B801A70128
:100ED0002AE00E94B306DF91CF911F910F91FF90FE
:100EE000EF900895AB01662757FD6095762F0E941D
:100EF0004B070895DC012115310541F4ED91FC917A
:100F00000190F081E02D642F099508952A30310574
:100F100019F40E944B0708950E94B30608951F928A
:100F20000F920FB60F9211242F933F938F939F939D
:100F3000AF93BF938091E1019091E201A091E30111
:100F4000B091E4013091E5010196A11DB11D232F5F
:100F50002D5F2D3720F02D570196A11DB11D209337
:100F6000E5018093E1019093E201A093E301B09346
:100F7000E4018091DD019091DE01A091DF01B0914B
:100F8000E0010196A11DB11D8093DD019093DE016A
:100F9000A093DF01B093E001BF91AF919F918F913A
:100FA0003F912F910F900FBE0F901F901895EF92C9
:100FB000FF920F931F937B018C018FB7F8944091A0
:100FC000E1015091E2016091E3017091E4018FBF72
:100FD0002FB7F8948091E1019091E201A091E30193
:100FE000B091E4012FBF841B950BA60BB70BE8163D
:100FF000F9060A071B0760F71F910F91FF90EF900A
:101000000895789484B5826084BD84B5816084BD80
:1010100085B5826085BD85B5816085BDEEE6F0E071
:10102000808181608083E1E8F0E08081826080835C
:10103000808181608083E0E8F0E08081816080834E
:10104000E1EBF0E0808184608083E0EBF0E0808180
:1010500081608083EAE7F0E0808184608083808122
:1010600082608083808181608083808180688083CA
:101070001092C100089597FB092E07260AD077FD2C
:1010800004D049D006D000201AF4709561957F4FA6
:101090000895F6F7909581959F4F0895A1E21A2E35
:1010A000AA1BBB1BFD010DC0AA1FBB1FEE1FFF1F0C
:1010B000A217B307E407F50720F0A21BB30BE40B5C
:1010C000F50B661F771F881F991F1A9469F76095A3
:1010D0007095809590959B01AC01BD01CF0108955D
:1010E00097FB092E05260ED057FD04D0D7DF0AD076
:1010F000001C38F450954095309521953F4F4F4F47
:101100005F4F0895F6F790958095709561957F4FA4
:101110008F4F9F4F0895AA1BBB1B51E107C0AA1F09
:10112000BB1FA617B70710F0A61BB70B881F991F88
:101130005A95A9F780959095BC01CD010895EE0FC1
:0E114000FF1F0590F491E02D0994F894FFCF65
:10114E00746573746520212000202D2D2000200051
:10115E00200A20002000EA010000000000002A06FC
:04116E0074068C0671
:00000001FF
